{
  "_format": "hh-sol-artifact-1",
  "contractName": "BlogItem",
  "sourceName": "contracts/BlogItem.sol",
  "abi": [
    {
      "inputs": [
        {
          "internalType": "string",
          "name": "name",
          "type": "string"
        },
        {
          "internalType": "string",
          "name": "symbol",
          "type": "string"
        },
        {
          "internalType": "uint256",
          "name": "fees",
          "type": "uint256"
        }
      ],
      "stateMutability": "nonpayable",
      "type": "constructor"
    },
    {
      "anonymous": false,
      "inputs": [
        {
          "indexed": true,
          "internalType": "address",
          "name": "owner",
          "type": "address"
        },
        {
          "indexed": true,
          "internalType": "address",
          "name": "approved",
          "type": "address"
        },
        {
          "indexed": true,
          "internalType": "uint256",
          "name": "tokenId",
          "type": "uint256"
        }
      ],
      "name": "Approval",
      "type": "event"
    },
    {
      "anonymous": false,
      "inputs": [
        {
          "indexed": true,
          "internalType": "address",
          "name": "owner",
          "type": "address"
        },
        {
          "indexed": true,
          "internalType": "address",
          "name": "operator",
          "type": "address"
        },
        {
          "indexed": false,
          "internalType": "bool",
          "name": "approved",
          "type": "bool"
        }
      ],
      "name": "ApprovalForAll",
      "type": "event"
    },
    {
      "anonymous": false,
      "inputs": [
        {
          "indexed": true,
          "internalType": "address",
          "name": "previousOwner",
          "type": "address"
        },
        {
          "indexed": true,
          "internalType": "address",
          "name": "newOwner",
          "type": "address"
        }
      ],
      "name": "OwnershipTransferred",
      "type": "event"
    },
    {
      "anonymous": false,
      "inputs": [
        {
          "indexed": true,
          "internalType": "address",
          "name": "from",
          "type": "address"
        },
        {
          "indexed": true,
          "internalType": "address",
          "name": "to",
          "type": "address"
        },
        {
          "indexed": true,
          "internalType": "uint256",
          "name": "tokenId",
          "type": "uint256"
        }
      ],
      "name": "Transfer",
      "type": "event"
    },
    {
      "inputs": [
        {
          "internalType": "address",
          "name": "to",
          "type": "address"
        },
        {
          "internalType": "uint256",
          "name": "tokenId",
          "type": "uint256"
        }
      ],
      "name": "approve",
      "outputs": [],
      "stateMutability": "nonpayable",
      "type": "function"
    },
    {
      "inputs": [
        {
          "internalType": "address",
          "name": "owner",
          "type": "address"
        }
      ],
      "name": "balanceOf",
      "outputs": [
        {
          "internalType": "uint256",
          "name": "",
          "type": "uint256"
        }
      ],
      "stateMutability": "view",
      "type": "function"
    },
    {
      "inputs": [
        {
          "internalType": "string",
          "name": "old_uri",
          "type": "string"
        },
        {
          "internalType": "string",
          "name": "new_uri",
          "type": "string"
        }
      ],
      "name": "editBlog",
      "outputs": [
        {
          "internalType": "uint256",
          "name": "",
          "type": "uint256"
        }
      ],
      "stateMutability": "payable",
      "type": "function"
    },
    {
      "inputs": [],
      "name": "getAllPublishedUri",
      "outputs": [
        {
          "internalType": "string[]",
          "name": "",
          "type": "string[]"
        }
      ],
      "stateMutability": "nonpayable",
      "type": "function"
    },
    {
      "inputs": [
        {
          "internalType": "uint256",
          "name": "tokenId",
          "type": "uint256"
        }
      ],
      "name": "getApproved",
      "outputs": [
        {
          "internalType": "address",
          "name": "",
          "type": "address"
        }
      ],
      "stateMutability": "view",
      "type": "function"
    },
    {
      "inputs": [],
      "name": "getFees",
      "outputs": [
        {
          "internalType": "uint256",
          "name": "",
          "type": "uint256"
        }
      ],
      "stateMutability": "view",
      "type": "function"
    },
    {
      "inputs": [
        {
          "internalType": "address",
          "name": "user",
          "type": "address"
        }
      ],
      "name": "getListTokenIdOfAddress",
      "outputs": [
        {
          "internalType": "uint256[]",
          "name": "",
          "type": "uint256[]"
        }
      ],
      "stateMutability": "nonpayable",
      "type": "function"
    },
    {
      "inputs": [
        {
          "internalType": "address",
          "name": "user",
          "type": "address"
        }
      ],
      "name": "getListUriOfAddress",
      "outputs": [
        {
          "internalType": "string[]",
          "name": "",
          "type": "string[]"
        }
      ],
      "stateMutability": "nonpayable",
      "type": "function"
    },
    {
      "inputs": [
        {
          "internalType": "string",
          "name": "uri",
          "type": "string"
        }
      ],
      "name": "getMedalOfUri",
      "outputs": [
        {
          "internalType": "uint256",
          "name": "",
          "type": "uint256"
        }
      ],
      "stateMutability": "nonpayable",
      "type": "function"
    },
    {
      "inputs": [
        {
          "internalType": "string",
          "name": "uri",
          "type": "string"
        }
      ],
      "name": "getTokenIdOfUri",
      "outputs": [
        {
          "internalType": "uint256",
          "name": "",
          "type": "uint256"
        }
      ],
      "stateMutability": "nonpayable",
      "type": "function"
    },
    {
      "inputs": [
        {
          "internalType": "string",
          "name": "old_uri",
          "type": "string"
        }
      ],
      "name": "giveMedalToABlog",
      "outputs": [
        {
          "internalType": "uint256",
          "name": "",
          "type": "uint256"
        }
      ],
      "stateMutability": "payable",
      "type": "function"
    },
    {
      "inputs": [
        {
          "internalType": "address",
          "name": "owner",
          "type": "address"
        },
        {
          "internalType": "address",
          "name": "operator",
          "type": "address"
        }
      ],
      "name": "isApprovedForAll",
      "outputs": [
        {
          "internalType": "bool",
          "name": "",
          "type": "bool"
        }
      ],
      "stateMutability": "view",
      "type": "function"
    },
    {
      "inputs": [],
      "name": "name",
      "outputs": [
        {
          "internalType": "string",
          "name": "",
          "type": "string"
        }
      ],
      "stateMutability": "view",
      "type": "function"
    },
    {
      "inputs": [],
      "name": "owner",
      "outputs": [
        {
          "internalType": "address",
          "name": "",
          "type": "address"
        }
      ],
      "stateMutability": "view",
      "type": "function"
    },
    {
      "inputs": [
        {
          "internalType": "uint256",
          "name": "tokenId",
          "type": "uint256"
        }
      ],
      "name": "ownerOf",
      "outputs": [
        {
          "internalType": "address",
          "name": "",
          "type": "address"
        }
      ],
      "stateMutability": "view",
      "type": "function"
    },
    {
      "inputs": [
        {
          "internalType": "string",
          "name": "uri",
          "type": "string"
        }
      ],
      "name": "publicBlog",
      "outputs": [
        {
          "internalType": "uint256",
          "name": "",
          "type": "uint256"
        }
      ],
      "stateMutability": "payable",
      "type": "function"
    },
    {
      "inputs": [],
      "name": "renounceOwnership",
      "outputs": [],
      "stateMutability": "nonpayable",
      "type": "function"
    },
    {
      "inputs": [
        {
          "internalType": "address",
          "name": "from",
          "type": "address"
        },
        {
          "internalType": "address",
          "name": "to",
          "type": "address"
        },
        {
          "internalType": "uint256",
          "name": "tokenId",
          "type": "uint256"
        }
      ],
      "name": "safeTransferFrom",
      "outputs": [],
      "stateMutability": "nonpayable",
      "type": "function"
    },
    {
      "inputs": [
        {
          "internalType": "address",
          "name": "from",
          "type": "address"
        },
        {
          "internalType": "address",
          "name": "to",
          "type": "address"
        },
        {
          "internalType": "uint256",
          "name": "tokenId",
          "type": "uint256"
        },
        {
          "internalType": "bytes",
          "name": "data",
          "type": "bytes"
        }
      ],
      "name": "safeTransferFrom",
      "outputs": [],
      "stateMutability": "nonpayable",
      "type": "function"
    },
    {
      "inputs": [
        {
          "internalType": "address",
          "name": "operator",
          "type": "address"
        },
        {
          "internalType": "bool",
          "name": "approved",
          "type": "bool"
        }
      ],
      "name": "setApprovalForAll",
      "outputs": [],
      "stateMutability": "nonpayable",
      "type": "function"
    },
    {
      "inputs": [
        {
          "internalType": "bytes4",
          "name": "interfaceId",
          "type": "bytes4"
        }
      ],
      "name": "supportsInterface",
      "outputs": [
        {
          "internalType": "bool",
          "name": "",
          "type": "bool"
        }
      ],
      "stateMutability": "view",
      "type": "function"
    },
    {
      "inputs": [],
      "name": "symbol",
      "outputs": [
        {
          "internalType": "string",
          "name": "",
          "type": "string"
        }
      ],
      "stateMutability": "view",
      "type": "function"
    },
    {
      "inputs": [
        {
          "internalType": "uint256",
          "name": "tokenId",
          "type": "uint256"
        }
      ],
      "name": "tokenURI",
      "outputs": [
        {
          "internalType": "string",
          "name": "",
          "type": "string"
        }
      ],
      "stateMutability": "view",
      "type": "function"
    },
    {
      "inputs": [
        {
          "internalType": "address",
          "name": "from",
          "type": "address"
        },
        {
          "internalType": "address",
          "name": "to",
          "type": "address"
        },
        {
          "internalType": "uint256",
          "name": "tokenId",
          "type": "uint256"
        }
      ],
      "name": "transferFrom",
      "outputs": [],
      "stateMutability": "nonpayable",
      "type": "function"
    },
    {
      "inputs": [
        {
          "internalType": "address",
          "name": "newOwner",
          "type": "address"
        }
      ],
      "name": "transferOwnership",
      "outputs": [],
      "stateMutability": "nonpayable",
      "type": "function"
    }
  ],
  "bytecode": "0x60806040523480156200001157600080fd5b5060405162004eaa38038062004eaa83398181016040528101906200003791906200032b565b828281600090816200004a919062000606565b5080600190816200005c919062000606565b5050506200007f620000736200008f60201b60201c565b6200009760201b60201c565b80600981905550505050620006ed565b600033905090565b6000600760009054906101000a900473ffffffffffffffffffffffffffffffffffffffff16905081600760006101000a81548173ffffffffffffffffffffffffffffffffffffffff021916908373ffffffffffffffffffffffffffffffffffffffff1602179055508173ffffffffffffffffffffffffffffffffffffffff168173ffffffffffffffffffffffffffffffffffffffff167f8be0079c531659141344cd1fd0a4f28419497f9722a3daafe3b4186f6b6457e060405160405180910390a35050565b6000604051905090565b600080fd5b600080fd5b600080fd5b600080fd5b6000601f19601f8301169050919050565b7f4e487b7100000000000000000000000000000000000000000000000000000000600052604160045260246000fd5b620001c6826200017b565b810181811067ffffffffffffffff82111715620001e857620001e76200018c565b5b80604052505050565b6000620001fd6200015d565b90506200020b8282620001bb565b919050565b600067ffffffffffffffff8211156200022e576200022d6200018c565b5b62000239826200017b565b9050602081019050919050565b60005b838110156200026657808201518184015260208101905062000249565b60008484015250505050565b600062000289620002838462000210565b620001f1565b905082815260208101848484011115620002a857620002a762000176565b5b620002b584828562000246565b509392505050565b600082601f830112620002d557620002d462000171565b5b8151620002e784826020860162000272565b91505092915050565b6000819050919050565b6200030581620002f0565b81146200031157600080fd5b50565b6000815190506200032581620002fa565b92915050565b60008060006060848603121562000347576200034662000167565b5b600084015167ffffffffffffffff8111156200036857620003676200016c565b5b6200037686828701620002bd565b935050602084015167ffffffffffffffff8111156200039a57620003996200016c565b5b620003a886828701620002bd565b9250506040620003bb8682870162000314565b9150509250925092565b600081519050919050565b7f4e487b7100000000000000000000000000000000000000000000000000000000600052602260045260246000fd5b600060028204905060018216806200041857607f821691505b6020821081036200042e576200042d620003d0565b5b50919050565b60008190508160005260206000209050919050565b60006020601f8301049050919050565b600082821b905092915050565b600060088302620004987fffffffffffffffffffffffffffffffffffffffffffffffffffffffffffffffff8262000459565b620004a4868362000459565b95508019841693508086168417925050509392505050565b6000819050919050565b6000620004e7620004e1620004db84620002f0565b620004bc565b620002f0565b9050919050565b6000819050919050565b6200050383620004c6565b6200051b6200051282620004ee565b84845462000466565b825550505050565b600090565b6200053262000523565b6200053f818484620004f8565b505050565b5b8181101562000567576200055b60008262000528565b60018101905062000545565b5050565b601f821115620005b657620005808162000434565b6200058b8462000449565b810160208510156200059b578190505b620005b3620005aa8562000449565b83018262000544565b50505b505050565b600082821c905092915050565b6000620005db60001984600802620005bb565b1980831691505092915050565b6000620005f68383620005c8565b9150826002028217905092915050565b6200061182620003c5565b67ffffffffffffffff8111156200062d576200062c6200018c565b5b620006398254620003ff565b620006468282856200056b565b600060209050601f8311600181146200067e576000841562000669578287015190505b620006758582620005e8565b865550620006e5565b601f1984166200068e8662000434565b60005b82811015620006b85784890151825560018201915060208501945060208101905062000691565b86831015620006d85784890151620006d4601f891682620005c8565b8355505b6001600288020188555050505b505050505050565b6147ad80620006fd6000396000f3fe6080604052600436106101665760003560e01c806370a08231116100d1578063b0e0badd1161008a578063d35075c511610064578063d35075c514610573578063db8d55f1146105b0578063e985e9c5146105db578063f2fde38b1461061857610166565b8063b0e0badd146104dd578063b88d4fde1461050d578063c87b56dd1461053657610166565b806370a08231146103df578063715018a61461041c5780638da5cb5b146104335780638e0eecbe1461045e57806395d89b4114610489578063a22cb465146104b457610166565b80631b7966fa116101235780631b7966fa146102a657806323b872dd146102e357806342842e0e1461030c5780634515833f146103355780635f2e8f12146103725780636352211e146103a257610166565b806301ffc9a71461016b57806306fdde03146101a8578063081812fc146101d35780630910cfaf14610210578063091f47431461024d578063095ea7b31461027d575b600080fd5b34801561017757600080fd5b50610192600480360381019061018d9190612d3c565b610641565b60405161019f9190612d84565b60405180910390f35b3480156101b457600080fd5b506101bd610723565b6040516101ca9190612e2f565b60405180910390f35b3480156101df57600080fd5b506101fa60048036038101906101f59190612e87565b6107b5565b6040516102079190612ef5565b60405180910390f35b34801561021c57600080fd5b5061023760048036038101906102329190613045565b6107fb565b604051610244919061309d565b60405180910390f35b61026760048036038101906102629190613045565b6108a3565b604051610274919061309d565b60405180910390f35b34801561028957600080fd5b506102a4600480360381019061029f91906130e4565b610a85565b005b3480156102b257600080fd5b506102cd60048036038101906102c89190613124565b610b9c565b6040516102da919061325d565b60405180910390f35b3480156102ef57600080fd5b5061030a6004803603810190610305919061327f565b610c7f565b005b34801561031857600080fd5b50610333600480360381019061032e919061327f565b610cdf565b005b34801561034157600080fd5b5061035c60048036038101906103579190613124565b610cff565b6040516103699190613390565b60405180910390f35b61038c60048036038101906103879190613045565b610e47565b604051610399919061309d565b60405180910390f35b3480156103ae57600080fd5b506103c960048036038101906103c49190612e87565b61109f565b6040516103d69190612ef5565b60405180910390f35b3480156103eb57600080fd5b5061040660048036038101906104019190613124565b611125565b604051610413919061309d565b60405180910390f35b34801561042857600080fd5b506104316111dc565b005b34801561043f57600080fd5b506104486111f0565b6040516104559190612ef5565b60405180910390f35b34801561046a57600080fd5b5061047361121a565b604051610480919061325d565b60405180910390f35b34801561049557600080fd5b5061049e6112f5565b6040516104ab9190612e2f565b60405180910390f35b3480156104c057600080fd5b506104db60048036038101906104d691906133de565b611387565b005b6104f760048036038101906104f2919061341e565b61139d565b604051610504919061309d565b60405180910390f35b34801561051957600080fd5b50610534600480360381019061052f9190613537565b611604565b005b34801561054257600080fd5b5061055d60048036038101906105589190612e87565b611666565b60405161056a9190612e2f565b60405180910390f35b34801561057f57600080fd5b5061059a60048036038101906105959190613045565b611678565b6040516105a7919061309d565b60405180910390f35b3480156105bc57600080fd5b506105c561170f565b6040516105d2919061309d565b60405180910390f35b3480156105e757600080fd5b5061060260048036038101906105fd91906135ba565b611719565b60405161060f9190612d84565b60405180910390f35b34801561062457600080fd5b5061063f600480360381019061063a9190613124565b6117ad565b005b60007f80ac58cd000000000000000000000000000000000000000000000000000000007bffffffffffffffffffffffffffffffffffffffffffffffffffffffff1916827bffffffffffffffffffffffffffffffffffffffffffffffffffffffff1916148061070c57507f5b5e139f000000000000000000000000000000000000000000000000000000007bffffffffffffffffffffffffffffffffffffffffffffffffffffffff1916827bffffffffffffffffffffffffffffffffffffffffffffffffffffffff1916145b8061071c575061071b82611830565b5b9050919050565b60606000805461073290613629565b80601f016020809104026020016040519081016040528092919081815260200182805461075e90613629565b80156107ab5780601f10610780576101008083540402835291602001916107ab565b820191906000526020600020905b81548152906001019060200180831161078e57829003601f168201915b5050505050905090565b60006107c08261189a565b6004600083815260200190815260200160002060009054906101000a900473ffffffffffffffffffffffffffffffffffffffff169050919050565b600060011515600b836040516108119190613696565b908152602001604051809103902060010160009054906101000a900460ff16151514610872576040517f08c379a0000000000000000000000000000000000000000000000000000000008152600401610869906136f9565b60405180910390fd5b61089c600b836040516108859190613696565b9081526020016040518091039020600001546118e5565b9050919050565b60008015156108b183611964565b1515146108f3576040517f08c379a00000000000000000000000000000000000000000000000000000000081526004016108ea90613765565b60405180910390fd5b600954341015610938576040517f08c379a000000000000000000000000000000000000000000000000000000000815260040161092f906137d1565b60405180910390fd5b6109406111f0565b73ffffffffffffffffffffffffffffffffffffffff166108fc6009549081150290604051600060405180830381858888f19350505050158015610987573d6000803e3d6000fd5b506000610994338461199c565b9050600c60003373ffffffffffffffffffffffffffffffffffffffff1673ffffffffffffffffffffffffffffffffffffffff168152602001908152602001600020819080600181540180825580915050600190039060005260206000200160009091909190915055600e81908060018154018082558091505060019003906000526020600020016000909190919091505560004790506000811115610a7b573373ffffffffffffffffffffffffffffffffffffffff166108fc479081150290604051600060405180830381858888f19350505050158015610a79573d6000803e3d6000fd5b505b8192505050919050565b6000610a908261109f565b90508073ffffffffffffffffffffffffffffffffffffffff168373ffffffffffffffffffffffffffffffffffffffff1603610b00576040517f08c379a0000000000000000000000000000000000000000000000000000000008152600401610af790613863565b60405180910390fd5b8073ffffffffffffffffffffffffffffffffffffffff16610b1f611a98565b73ffffffffffffffffffffffffffffffffffffffff161480610b4e5750610b4d81610b48611a98565b611719565b5b610b8d576040517f08c379a0000000000000000000000000000000000000000000000000000000008152600401610b84906138f5565b60405180910390fd5b610b978383611aa0565b505050565b60606000610ba983610cff565b905060008151905060008167ffffffffffffffff811115610bcd57610bcc612f1a565b5b604051908082528060200260200182016040528015610c0057816020015b6060815260200190600190039081610beb5790505b50905060005b82811015610c73576000848281518110610c2357610c22613915565b5b60200260200101519050610c36816118e5565b9050610c4181611666565b838381518110610c5457610c53613915565b5b6020026020010181905250508080610c6b90613973565b915050610c06565b50809350505050919050565b610c90610c8a611a98565b82611b59565b610ccf576040517f08c379a0000000000000000000000000000000000000000000000000000000008152600401610cc690613a2d565b60405180910390fd5b610cda838383611bee565b505050565b610cfa83838360405180602001604052806000815250611604565b505050565b60606000600c60008473ffffffffffffffffffffffffffffffffffffffff1673ffffffffffffffffffffffffffffffffffffffff16815260200190815260200160002080549050905060008167ffffffffffffffff811115610d6457610d63612f1a565b5b604051908082528060200260200182016040528015610d925781602001602082028036833780820191505090505b50905060005b82811015610e3c576000600c60008773ffffffffffffffffffffffffffffffffffffffff1673ffffffffffffffffffffffffffffffffffffffff1681526020019081526020016000208281548110610df357610df2613915565b5b90600052602060002001549050610e09816118e5565b838381518110610e1c57610e1b613915565b5b602002602001018181525050508080610e3490613973565b915050610d98565b508092505050919050565b600080610e53836107fb565b905060011515610e6284611964565b151514610ea4576040517f08c379a0000000000000000000000000000000000000000000000000000000008152600401610e9b90613a99565b60405180910390fd5b60011515600d600083815260200190815260200160002060010160009054906101000a900460ff16151514610f0e576040517f08c379a0000000000000000000000000000000000000000000000000000000008152600401610f0590613b05565b60405180910390fd5b3373ffffffffffffffffffffffffffffffffffffffff16610f2e8261109f565b73ffffffffffffffffffffffffffffffffffffffff1603610f84576040517f08c379a0000000000000000000000000000000000000000000000000000000008152600401610f7b90613b97565b60405180910390fd5b600954341015610fc9576040517f08c379a0000000000000000000000000000000000000000000000000000000008152600401610fc090613c03565b60405180910390fd5b6000610fd4826118e5565b9050818114611018576040517f08c379a000000000000000000000000000000000000000000000000000000000815260040161100f90613c6f565b60405180910390fd5b6110218261109f565b73ffffffffffffffffffffffffffffffffffffffff166108fc349081150290604051600060405180830381858888f19350505050158015611066573d6000803e3d6000fd5b506000600d60008381526020019081526020016000206000016000815461108c90613973565b9190508190559050809350505050919050565b6000806110ab83611ee7565b9050600073ffffffffffffffffffffffffffffffffffffffff168173ffffffffffffffffffffffffffffffffffffffff160361111c576040517f08c379a000000000000000000000000000000000000000000000000000000000815260040161111390613cdb565b60405180910390fd5b80915050919050565b60008073ffffffffffffffffffffffffffffffffffffffff168273ffffffffffffffffffffffffffffffffffffffff1603611195576040517f08c379a000000000000000000000000000000000000000000000000000000000815260040161118c90613d6d565b60405180910390fd5b600360008373ffffffffffffffffffffffffffffffffffffffff1673ffffffffffffffffffffffffffffffffffffffff168152602001908152602001600020549050919050565b6111e4611f24565b6111ee6000611fa2565b565b6000600760009054906101000a900473ffffffffffffffffffffffffffffffffffffffff16905090565b60606000600e80549050905060008167ffffffffffffffff81111561124257611241612f1a565b5b60405190808252806020026020018201604052801561127557816020015b60608152602001906001900390816112605790505b50905060005b828110156112ec576000600e828154811061129957611298613915565b5b906000526020600020015490506112af816118e5565b90506112ba81611666565b8383815181106112cd576112cc613915565b5b60200260200101819052505080806112e490613973565b91505061127b565b50809250505090565b60606001805461130490613629565b80601f016020809104026020016040519081016040528092919081815260200182805461133090613629565b801561137d5780601f106113525761010080835404028352916020019161137d565b820191906000526020600020905b81548152906001019060200180831161136057829003601f168201915b5050505050905090565b611399611392611a98565b8383612068565b5050565b6000806113a9846107fb565b90503373ffffffffffffffffffffffffffffffffffffffff166113cb8261109f565b73ffffffffffffffffffffffffffffffffffffffff1614611421576040517f08c379a000000000000000000000000000000000000000000000000000000000815260040161141890613dd9565b60405180910390fd5b6000151561142e84611964565b151514611470576040517f08c379a000000000000000000000000000000000000000000000000000000000815260040161146790613765565b60405180910390fd5b6009543410156114b5576040517f08c379a00000000000000000000000000000000000000000000000000000000081526004016114ac90613c03565b60405180910390fd5b6114bd6111f0565b73ffffffffffffffffffffffffffffffffffffffff166108fc6009549081150290604051600060405180830381858888f19350505050158015611504573d6000803e3d6000fd5b5060006115196115138361109f565b8561199c565b9050600061152783836121d4565b90506001151581151514611570576040517f08c379a000000000000000000000000000000000000000000000000000000000815260040161156790613e45565b60405180910390fd5b600d600084815260200190815260200160002060000154600d600084815260200190815260200160002060000181905550600047905060008111156115f7573373ffffffffffffffffffffffffffffffffffffffff166108fc479081150290604051600060405180830381858888f193505050501580156115f5573d6000803e3d6000fd5b505b8294505050505092915050565b61161561160f611a98565b83611b59565b611654576040517f08c379a000000000000000000000000000000000000000000000000000000000815260040161164b90613a2d565b60405180910390fd5b61166084848484612229565b50505050565b606061167182612285565b9050919050565b600080611684836107fb565b905060011515600d600083815260200190815260200160002060010160009054906101000a900460ff161515146116f0576040517f08c379a00000000000000000000000000000000000000000000000000000000081526004016116e790613eb1565b60405180910390fd5b600d600082815260200190815260200160002060000154915050919050565b6000600954905090565b6000600560008473ffffffffffffffffffffffffffffffffffffffff1673ffffffffffffffffffffffffffffffffffffffff16815260200190815260200160002060008373ffffffffffffffffffffffffffffffffffffffff1673ffffffffffffffffffffffffffffffffffffffff16815260200190815260200160002060009054906101000a900460ff16905092915050565b6117b5611f24565b600073ffffffffffffffffffffffffffffffffffffffff168173ffffffffffffffffffffffffffffffffffffffff1603611824576040517f08c379a000000000000000000000000000000000000000000000000000000000815260040161181b90613f43565b60405180910390fd5b61182d81611fa2565b50565b60007f01ffc9a7000000000000000000000000000000000000000000000000000000007bffffffffffffffffffffffffffffffffffffffffffffffffffffffff1916827bffffffffffffffffffffffffffffffffffffffffffffffffffffffff1916149050919050565b6118a381612397565b6118e2576040517f08c379a00000000000000000000000000000000000000000000000000000000081526004016118d990613cdb565b60405180910390fd5b50565b600081600a6000848152602001908152602001600020600001540361190c5781905061195f565b61192b600a6000848152602001908152602001600020600001546118e5565b600a600084815260200190815260200160002060000181905550600a60008381526020019081526020016000206000015490505b919050565b6000600b826040516119769190613696565b908152602001604051809103902060010160009054906101000a900460ff169050919050565b6000806119a960086123d8565b90506119b560086123e6565b6119bf84826123fc565b6119c9818461241a565b604051806040016040528082815260200160011515815250600b846040516119f19190613696565b90815260200160405180910390206000820151816000015560208201518160010160006101000a81548160ff02191690831515021790555090505060405180604001604052806000815260200160011515815250600d60008381526020019081526020016000206000820151816000015560208201518160010160006101000a81548160ff021916908315150217905550905050611a8e81612487565b8091505092915050565b600033905090565b816004600083815260200190815260200160002060006101000a81548173ffffffffffffffffffffffffffffffffffffffff021916908373ffffffffffffffffffffffffffffffffffffffff160217905550808273ffffffffffffffffffffffffffffffffffffffff16611b138361109f565b73ffffffffffffffffffffffffffffffffffffffff167f8c5be1e5ebec7d5bd14f71427d1e84f3dd0314c0f7b2291e5b200ac8c7c3b92560405160405180910390a45050565b600080611b658361109f565b90508073ffffffffffffffffffffffffffffffffffffffff168473ffffffffffffffffffffffffffffffffffffffff161480611ba75750611ba68185611719565b5b80611be557508373ffffffffffffffffffffffffffffffffffffffff16611bcd846107b5565b73ffffffffffffffffffffffffffffffffffffffff16145b91505092915050565b8273ffffffffffffffffffffffffffffffffffffffff16611c0e8261109f565b73ffffffffffffffffffffffffffffffffffffffff1614611c64576040517f08c379a0000000000000000000000000000000000000000000000000000000008152600401611c5b90613fd5565b60405180910390fd5b600073ffffffffffffffffffffffffffffffffffffffff168273ffffffffffffffffffffffffffffffffffffffff1603611cd3576040517f08c379a0000000000000000000000000000000000000000000000000000000008152600401611cca90614067565b60405180910390fd5b611ce083838360016124e2565b8273ffffffffffffffffffffffffffffffffffffffff16611d008261109f565b73ffffffffffffffffffffffffffffffffffffffff1614611d56576040517f08c379a0000000000000000000000000000000000000000000000000000000008152600401611d4d90613fd5565b60405180910390fd5b6004600082815260200190815260200160002060006101000a81549073ffffffffffffffffffffffffffffffffffffffff02191690556001600360008573ffffffffffffffffffffffffffffffffffffffff1673ffffffffffffffffffffffffffffffffffffffff168152602001908152602001600020600082825403925050819055506001600360008473ffffffffffffffffffffffffffffffffffffffff1673ffffffffffffffffffffffffffffffffffffffff16815260200190815260200160002060008282540192505081905550816002600083815260200190815260200160002060006101000a81548173ffffffffffffffffffffffffffffffffffffffff021916908373ffffffffffffffffffffffffffffffffffffffff160217905550808273ffffffffffffffffffffffffffffffffffffffff168473ffffffffffffffffffffffffffffffffffffffff167fddf252ad1be2c89b69c2b068fc378daa952ba7f163c4a11628f55a4df523b3ef60405160405180910390a4611ee28383836001612608565b505050565b60006002600083815260200190815260200160002060009054906101000a900473ffffffffffffffffffffffffffffffffffffffff169050919050565b611f2c611a98565b73ffffffffffffffffffffffffffffffffffffffff16611f4a6111f0565b73ffffffffffffffffffffffffffffffffffffffff1614611fa0576040517f08c379a0000000000000000000000000000000000000000000000000000000008152600401611f97906140d3565b60405180910390fd5b565b6000600760009054906101000a900473ffffffffffffffffffffffffffffffffffffffff16905081600760006101000a81548173ffffffffffffffffffffffffffffffffffffffff021916908373ffffffffffffffffffffffffffffffffffffffff1602179055508173ffffffffffffffffffffffffffffffffffffffff168173ffffffffffffffffffffffffffffffffffffffff167f8be0079c531659141344cd1fd0a4f28419497f9722a3daafe3b4186f6b6457e060405160405180910390a35050565b8173ffffffffffffffffffffffffffffffffffffffff168373ffffffffffffffffffffffffffffffffffffffff16036120d6576040517f08c379a00000000000000000000000000000000000000000000000000000000081526004016120cd9061413f565b60405180910390fd5b80600560008573ffffffffffffffffffffffffffffffffffffffff1673ffffffffffffffffffffffffffffffffffffffff16815260200190815260200160002060008473ffffffffffffffffffffffffffffffffffffffff1673ffffffffffffffffffffffffffffffffffffffff16815260200190815260200160002060006101000a81548160ff0219169083151502179055508173ffffffffffffffffffffffffffffffffffffffff168373ffffffffffffffffffffffffffffffffffffffff167f17307eab39ab6107e8899845ad3d59bd9653f200f220920489ca2b5937696c31836040516121c79190612d84565b60405180910390a3505050565b6000806121e0846118e5565b905060006121ed846118e5565b905080820361220157600092505050612223565b80600a6000848152602001908152602001600020600001819055506001925050505b92915050565b612234848484611bee565b6122408484848461260e565b61227f576040517f08c379a0000000000000000000000000000000000000000000000000000000008152600401612276906141d1565b60405180910390fd5b50505050565b60606122908261189a565b60006006600084815260200190815260200160002080546122b090613629565b80601f01602080910402602001604051908101604052809291908181526020018280546122dc90613629565b80156123295780601f106122fe57610100808354040283529160200191612329565b820191906000526020600020905b81548152906001019060200180831161230c57829003601f168201915b50505050509050600061233a612795565b9050600081510361234f578192505050612392565b60008251111561238457808260405160200161236c9291906141f1565b60405160208183030381529060405292505050612392565b61238d846127ac565b925050505b919050565b60008073ffffffffffffffffffffffffffffffffffffffff166123b983611ee7565b73ffffffffffffffffffffffffffffffffffffffff1614159050919050565b600081600001549050919050565b6001816000016000828254019250508190555050565b612416828260405180602001604052806000815250612814565b5050565b61242382612397565b612462576040517f08c379a000000000000000000000000000000000000000000000000000000000815260040161245990614287565b60405180910390fd5b806006600084815260200190815260200160002090816124829190614453565b505050565b604051806040016040528082815260200160011515815250600a60008381526020019081526020016000206000820151816000015560208201518160010160006101000a81548160ff02191690831515021790555090505050565b600181111561260257600073ffffffffffffffffffffffffffffffffffffffff168473ffffffffffffffffffffffffffffffffffffffff16146125765780600360008673ffffffffffffffffffffffffffffffffffffffff1673ffffffffffffffffffffffffffffffffffffffff168152602001908152602001600020600082825461256e9190614525565b925050819055505b600073ffffffffffffffffffffffffffffffffffffffff168373ffffffffffffffffffffffffffffffffffffffff16146126015780600360008573ffffffffffffffffffffffffffffffffffffffff1673ffffffffffffffffffffffffffffffffffffffff16815260200190815260200160002060008282546125f99190614559565b925050819055505b5b50505050565b50505050565b600061262f8473ffffffffffffffffffffffffffffffffffffffff1661286f565b15612788578373ffffffffffffffffffffffffffffffffffffffff1663150b7a02612658611a98565b8786866040518563ffffffff1660e01b815260040161267a94939291906145e2565b6020604051808303816000875af19250505080156126b657506040513d601f19601f820116820180604052508101906126b39190614643565b60015b612738573d80600081146126e6576040519150601f19603f3d011682016040523d82523d6000602084013e6126eb565b606091505b506000815103612730576040517f08c379a0000000000000000000000000000000000000000000000000000000008152600401612727906141d1565b60405180910390fd5b805181602001fd5b63150b7a0260e01b7bffffffffffffffffffffffffffffffffffffffffffffffffffffffff1916817bffffffffffffffffffffffffffffffffffffffffffffffffffffffff19161491505061278d565b600190505b949350505050565b606060405180602001604052806000815250905090565b60606127b78261189a565b60006127c1612795565b905060008151116127e1576040518060200160405280600081525061280c565b806127eb84612892565b6040516020016127fc9291906141f1565b6040516020818303038152906040525b915050919050565b61281e8383612960565b61282b600084848461260e565b61286a576040517f08c379a0000000000000000000000000000000000000000000000000000000008152600401612861906141d1565b60405180910390fd5b505050565b6000808273ffffffffffffffffffffffffffffffffffffffff163b119050919050565b6060600060016128a184612b7d565b01905060008167ffffffffffffffff8111156128c0576128bf612f1a565b5b6040519080825280601f01601f1916602001820160405280156128f25781602001600182028036833780820191505090505b509050600082602001820190505b600115612955578080600190039150507f3031323334353637383961626364656600000000000000000000000000000000600a86061a8153600a858161294957612948614670565b5b04945060008503612900575b819350505050919050565b600073ffffffffffffffffffffffffffffffffffffffff168273ffffffffffffffffffffffffffffffffffffffff16036129cf576040517f08c379a00000000000000000000000000000000000000000000000000000000081526004016129c6906146eb565b60405180910390fd5b6129d881612397565b15612a18576040517f08c379a0000000000000000000000000000000000000000000000000000000008152600401612a0f90614757565b60405180910390fd5b612a266000838360016124e2565b612a2f81612397565b15612a6f576040517f08c379a0000000000000000000000000000000000000000000000000000000008152600401612a6690614757565b60405180910390fd5b6001600360008473ffffffffffffffffffffffffffffffffffffffff1673ffffffffffffffffffffffffffffffffffffffff16815260200190815260200160002060008282540192505081905550816002600083815260200190815260200160002060006101000a81548173ffffffffffffffffffffffffffffffffffffffff021916908373ffffffffffffffffffffffffffffffffffffffff160217905550808273ffffffffffffffffffffffffffffffffffffffff16600073ffffffffffffffffffffffffffffffffffffffff167fddf252ad1be2c89b69c2b068fc378daa952ba7f163c4a11628f55a4df523b3ef60405160405180910390a4612b79600083836001612608565b5050565b600080600090507a184f03e93ff9f4daa797ed6e38ed64bf6a1f0100000000000000008310612bdb577a184f03e93ff9f4daa797ed6e38ed64bf6a1f0100000000000000008381612bd157612bd0614670565b5b0492506040810190505b6d04ee2d6d415b85acef81000000008310612c18576d04ee2d6d415b85acef81000000008381612c0e57612c0d614670565b5b0492506020810190505b662386f26fc100008310612c4757662386f26fc100008381612c3d57612c3c614670565b5b0492506010810190505b6305f5e1008310612c70576305f5e1008381612c6657612c65614670565b5b0492506008810190505b6127108310612c95576127108381612c8b57612c8a614670565b5b0492506004810190505b60648310612cb85760648381612cae57612cad614670565b5b0492506002810190505b600a8310612cc7576001810190505b80915050919050565b6000604051905090565b600080fd5b600080fd5b60007fffffffff0000000000000000000000000000000000000000000000000000000082169050919050565b612d1981612ce4565b8114612d2457600080fd5b50565b600081359050612d3681612d10565b92915050565b600060208284031215612d5257612d51612cda565b5b6000612d6084828501612d27565b91505092915050565b60008115159050919050565b612d7e81612d69565b82525050565b6000602082019050612d996000830184612d75565b92915050565b600081519050919050565b600082825260208201905092915050565b60005b83811015612dd9578082015181840152602081019050612dbe565b60008484015250505050565b6000601f19601f8301169050919050565b6000612e0182612d9f565b612e0b8185612daa565b9350612e1b818560208601612dbb565b612e2481612de5565b840191505092915050565b60006020820190508181036000830152612e498184612df6565b905092915050565b6000819050919050565b612e6481612e51565b8114612e6f57600080fd5b50565b600081359050612e8181612e5b565b92915050565b600060208284031215612e9d57612e9c612cda565b5b6000612eab84828501612e72565b91505092915050565b600073ffffffffffffffffffffffffffffffffffffffff82169050919050565b6000612edf82612eb4565b9050919050565b612eef81612ed4565b82525050565b6000602082019050612f0a6000830184612ee6565b92915050565b600080fd5b600080fd5b7f4e487b7100000000000000000000000000000000000000000000000000000000600052604160045260246000fd5b612f5282612de5565b810181811067ffffffffffffffff82111715612f7157612f70612f1a565b5b80604052505050565b6000612f84612cd0565b9050612f908282612f49565b919050565b600067ffffffffffffffff821115612fb057612faf612f1a565b5b612fb982612de5565b9050602081019050919050565b82818337600083830152505050565b6000612fe8612fe384612f95565b612f7a565b90508281526020810184848401111561300457613003612f15565b5b61300f848285612fc6565b509392505050565b600082601f83011261302c5761302b612f10565b5b813561303c848260208601612fd5565b91505092915050565b60006020828403121561305b5761305a612cda565b5b600082013567ffffffffffffffff81111561307957613078612cdf565b5b61308584828501613017565b91505092915050565b61309781612e51565b82525050565b60006020820190506130b2600083018461308e565b92915050565b6130c181612ed4565b81146130cc57600080fd5b50565b6000813590506130de816130b8565b92915050565b600080604083850312156130fb576130fa612cda565b5b6000613109858286016130cf565b925050602061311a85828601612e72565b9150509250929050565b60006020828403121561313a57613139612cda565b5b6000613148848285016130cf565b91505092915050565b600081519050919050565b600082825260208201905092915050565b6000819050602082019050919050565b600082825260208201905092915050565b600061319982612d9f565b6131a3818561317d565b93506131b3818560208601612dbb565b6131bc81612de5565b840191505092915050565b60006131d3838361318e565b905092915050565b6000602082019050919050565b60006131f382613151565b6131fd818561315c565b93508360208202850161320f8561316d565b8060005b8581101561324b578484038952815161322c85826131c7565b9450613237836131db565b925060208a01995050600181019050613213565b50829750879550505050505092915050565b6000602082019050818103600083015261327781846131e8565b905092915050565b60008060006060848603121561329857613297612cda565b5b60006132a6868287016130cf565b93505060206132b7868287016130cf565b92505060406132c886828701612e72565b9150509250925092565b600081519050919050565b600082825260208201905092915050565b6000819050602082019050919050565b61330781612e51565b82525050565b600061331983836132fe565b60208301905092915050565b6000602082019050919050565b600061333d826132d2565b61334781856132dd565b9350613352836132ee565b8060005b8381101561338357815161336a888261330d565b975061337583613325565b925050600181019050613356565b5085935050505092915050565b600060208201905081810360008301526133aa8184613332565b905092915050565b6133bb81612d69565b81146133c657600080fd5b50565b6000813590506133d8816133b2565b92915050565b600080604083850312156133f5576133f4612cda565b5b6000613403858286016130cf565b9250506020613414858286016133c9565b9150509250929050565b6000806040838503121561343557613434612cda565b5b600083013567ffffffffffffffff81111561345357613452612cdf565b5b61345f85828601613017565b925050602083013567ffffffffffffffff8111156134805761347f612cdf565b5b61348c85828601613017565b9150509250929050565b600067ffffffffffffffff8211156134b1576134b0612f1a565b5b6134ba82612de5565b9050602081019050919050565b60006134da6134d584613496565b612f7a565b9050828152602081018484840111156134f6576134f5612f15565b5b613501848285612fc6565b509392505050565b600082601f83011261351e5761351d612f10565b5b813561352e8482602086016134c7565b91505092915050565b6000806000806080858703121561355157613550612cda565b5b600061355f878288016130cf565b9450506020613570878288016130cf565b935050604061358187828801612e72565b925050606085013567ffffffffffffffff8111156135a2576135a1612cdf565b5b6135ae87828801613509565b91505092959194509250565b600080604083850312156135d1576135d0612cda565b5b60006135df858286016130cf565b92505060206135f0858286016130cf565b9150509250929050565b7f4e487b7100000000000000000000000000000000000000000000000000000000600052602260045260246000fd5b6000600282049050600182168061364157607f821691505b602082108103613654576136536135fa565b5b50919050565b600081905092915050565b600061367082612d9f565b61367a818561365a565b935061368a818560208601612dbb565b80840191505092915050565b60006136a28284613665565b915081905092915050565b7f557269206973206e6f7420616464656421000000000000000000000000000000600082015250565b60006136e3601183612daa565b91506136ee826136ad565b602082019050919050565b60006020820190508181036000830152613712816136d6565b9050919050565b7f5552492069732065786973746564210000000000000000000000000000000000600082015250565b600061374f600f83612daa565b915061375a82613719565b602082019050919050565b6000602082019050818103600083015261377e81613742565b9050919050565b7f4e6f7420656e6f7567682062616c616e63652120000000000000000000000000600082015250565b60006137bb601483612daa565b91506137c682613785565b602082019050919050565b600060208201905081810360008301526137ea816137ae565b9050919050565b7f4552433732313a20617070726f76616c20746f2063757272656e74206f776e6560008201527f7200000000000000000000000000000000000000000000000000000000000000602082015250565b600061384d602183612daa565b9150613858826137f1565b604082019050919050565b6000602082019050818103600083015261387c81613840565b9050919050565b7f4552433732313a20617070726f76652063616c6c6572206973206e6f7420746f60008201527f6b656e206f776e6572206f7220617070726f76656420666f7220616c6c000000602082015250565b60006138df603d83612daa565b91506138ea82613883565b604082019050919050565b6000602082019050818103600083015261390e816138d2565b9050919050565b7f4e487b7100000000000000000000000000000000000000000000000000000000600052603260045260246000fd5b7f4e487b7100000000000000000000000000000000000000000000000000000000600052601160045260246000fd5b600061397e82612e51565b91507fffffffffffffffffffffffffffffffffffffffffffffffffffffffffffffffff82036139b0576139af613944565b5b600182019050919050565b7f4552433732313a2063616c6c6572206973206e6f7420746f6b656e206f776e6560008201527f72206f7220617070726f76656400000000000000000000000000000000000000602082015250565b6000613a17602d83612daa565b9150613a22826139bb565b604082019050919050565b60006020820190508181036000830152613a4681613a0a565b9050919050565b7f757269206973206e6f7420657869737465642100000000000000000000000000600082015250565b6000613a83601383612daa565b9150613a8e82613a4d565b602082019050919050565b60006020820190508181036000830152613ab281613a76565b9050919050565b7f6d6564616c206973206e6f742065786973746564000000000000000000000000600082015250565b6000613aef601483612daa565b9150613afa82613ab9565b602082019050919050565b60006020820190508181036000830152613b1e81613ae2565b9050919050565b7f596f752063616e206e6f742067697665206d6564616c20746f20796f7572206f60008201527f776e206d6564616c210000000000000000000000000000000000000000000000602082015250565b6000613b81602983612daa565b9150613b8c82613b25565b604082019050919050565b60006020820190508181036000830152613bb081613b74565b9050919050565b7f4e6f7420656e6f7567682062616c616e63652100000000000000000000000000600082015250565b6000613bed601383612daa565b9150613bf882613bb7565b602082019050919050565b60006020820190508181036000830152613c1c81613be0565b9050919050565b7f54686520626c6f67207761732065646974656421000000000000000000000000600082015250565b6000613c59601483612daa565b9150613c6482613c23565b602082019050919050565b60006020820190508181036000830152613c8881613c4c565b9050919050565b7f4552433732313a20696e76616c696420746f6b656e2049440000000000000000600082015250565b6000613cc5601883612daa565b9150613cd082613c8f565b602082019050919050565b60006020820190508181036000830152613cf481613cb8565b9050919050565b7f4552433732313a2061646472657373207a65726f206973206e6f74206120766160008201527f6c6964206f776e65720000000000000000000000000000000000000000000000602082015250565b6000613d57602983612daa565b9150613d6282613cfb565b604082019050919050565b60006020820190508181036000830152613d8681613d4a565b9050919050565b7f596f7520617265206e6f7420746865206f776e65722100000000000000000000600082015250565b6000613dc3601683612daa565b9150613dce82613d8d565b602082019050919050565b60006020820190508181036000830152613df281613db6565b9050919050565b7f7374617465206973206578697374656400000000000000000000000000000000600082015250565b6000613e2f601083612daa565b9150613e3a82613df9565b602082019050919050565b60006020820190508181036000830152613e5e81613e22565b9050919050565b7f6d6564616c206d617070696e67206973206e6f74206578697374656421000000600082015250565b6000613e9b601d83612daa565b9150613ea682613e65565b602082019050919050565b60006020820190508181036000830152613eca81613e8e565b9050919050565b7f4f776e61626c653a206e6577206f776e657220697320746865207a65726f206160008201527f6464726573730000000000000000000000000000000000000000000000000000602082015250565b6000613f2d602683612daa565b9150613f3882613ed1565b604082019050919050565b60006020820190508181036000830152613f5c81613f20565b9050919050565b7f4552433732313a207472616e736665722066726f6d20696e636f72726563742060008201527f6f776e6572000000000000000000000000000000000000000000000000000000602082015250565b6000613fbf602583612daa565b9150613fca82613f63565b604082019050919050565b60006020820190508181036000830152613fee81613fb2565b9050919050565b7f4552433732313a207472616e7366657220746f20746865207a65726f2061646460008201527f7265737300000000000000000000000000000000000000000000000000000000602082015250565b6000614051602483612daa565b915061405c82613ff5565b604082019050919050565b6000602082019050818103600083015261408081614044565b9050919050565b7f4f776e61626c653a2063616c6c6572206973206e6f7420746865206f776e6572600082015250565b60006140bd602083612daa565b91506140c882614087565b602082019050919050565b600060208201905081810360008301526140ec816140b0565b9050919050565b7f4552433732313a20617070726f766520746f2063616c6c657200000000000000600082015250565b6000614129601983612daa565b9150614134826140f3565b602082019050919050565b600060208201905081810360008301526141588161411c565b9050919050565b7f4552433732313a207472616e7366657220746f206e6f6e20455243373231526560008201527f63656976657220696d706c656d656e7465720000000000000000000000000000602082015250565b60006141bb603283612daa565b91506141c68261415f565b604082019050919050565b600060208201905081810360008301526141ea816141ae565b9050919050565b60006141fd8285613665565b91506142098284613665565b91508190509392505050565b7f45524337323155524953746f726167653a2055524920736574206f66206e6f6e60008201527f6578697374656e7420746f6b656e000000000000000000000000000000000000602082015250565b6000614271602e83612daa565b915061427c82614215565b604082019050919050565b600060208201905081810360008301526142a081614264565b9050919050565b60008190508160005260206000209050919050565b60006020601f8301049050919050565b600082821b905092915050565b6000600883026143097fffffffffffffffffffffffffffffffffffffffffffffffffffffffffffffffff826142cc565b61431386836142cc565b95508019841693508086168417925050509392505050565b6000819050919050565b600061435061434b61434684612e51565b61432b565b612e51565b9050919050565b6000819050919050565b61436a83614335565b61437e61437682614357565b8484546142d9565b825550505050565b600090565b614393614386565b61439e818484614361565b505050565b5b818110156143c2576143b760008261438b565b6001810190506143a4565b5050565b601f821115614407576143d8816142a7565b6143e1846142bc565b810160208510156143f0578190505b6144046143fc856142bc565b8301826143a3565b50505b505050565b600082821c905092915050565b600061442a6000198460080261440c565b1980831691505092915050565b60006144438383614419565b9150826002028217905092915050565b61445c82612d9f565b67ffffffffffffffff81111561447557614474612f1a565b5b61447f8254613629565b61448a8282856143c6565b600060209050601f8311600181146144bd57600084156144ab578287015190505b6144b58582614437565b86555061451d565b601f1984166144cb866142a7565b60005b828110156144f3578489015182556001820191506020850194506020810190506144ce565b86831015614510578489015161450c601f891682614419565b8355505b6001600288020188555050505b505050505050565b600061453082612e51565b915061453b83612e51565b925082820390508181111561455357614552613944565b5b92915050565b600061456482612e51565b915061456f83612e51565b925082820190508082111561458757614586613944565b5b92915050565b600081519050919050565b600082825260208201905092915050565b60006145b48261458d565b6145be8185614598565b93506145ce818560208601612dbb565b6145d781612de5565b840191505092915050565b60006080820190506145f76000830187612ee6565b6146046020830186612ee6565b614611604083018561308e565b818103606083015261462381846145a9565b905095945050505050565b60008151905061463d81612d10565b92915050565b60006020828403121561465957614658612cda565b5b60006146678482850161462e565b91505092915050565b7f4e487b7100000000000000000000000000000000000000000000000000000000600052601260045260246000fd5b7f4552433732313a206d696e7420746f20746865207a65726f2061646472657373600082015250565b60006146d5602083612daa565b91506146e08261469f565b602082019050919050565b60006020820190508181036000830152614704816146c8565b9050919050565b7f4552433732313a20746f6b656e20616c7265616479206d696e74656400000000600082015250565b6000614741601c83612daa565b915061474c8261470b565b602082019050919050565b6000602082019050818103600083015261477081614734565b905091905056fea264697066735822122001e247cb6d1d4ae6fa5d58e6153493fba6f06bf72456d43679f964bf453efa1964736f6c63430008110033",
  "linkReferences": {},
  "deployedLinkReferences": {}
}