{
  "_format": "hh-sol-artifact-1",
  "contractName": "BlogItem",
  "sourceName": "contracts/BlogItem.sol",
  "abi": [
    {
      "inputs": [
        {
          "internalType": "string",
          "name": "name",
          "type": "string"
        },
        {
          "internalType": "string",
          "name": "symbol",
          "type": "string"
        },
        {
          "internalType": "uint256",
          "name": "fees",
          "type": "uint256"
        }
      ],
      "stateMutability": "nonpayable",
      "type": "constructor"
    },
    {
      "anonymous": false,
      "inputs": [
        {
          "indexed": true,
          "internalType": "address",
          "name": "owner",
          "type": "address"
        },
        {
          "indexed": true,
          "internalType": "address",
          "name": "approved",
          "type": "address"
        },
        {
          "indexed": true,
          "internalType": "uint256",
          "name": "tokenId",
          "type": "uint256"
        }
      ],
      "name": "Approval",
      "type": "event"
    },
    {
      "anonymous": false,
      "inputs": [
        {
          "indexed": true,
          "internalType": "address",
          "name": "owner",
          "type": "address"
        },
        {
          "indexed": true,
          "internalType": "address",
          "name": "operator",
          "type": "address"
        },
        {
          "indexed": false,
          "internalType": "bool",
          "name": "approved",
          "type": "bool"
        }
      ],
      "name": "ApprovalForAll",
      "type": "event"
    },
    {
      "anonymous": false,
      "inputs": [
        {
          "indexed": true,
          "internalType": "address",
          "name": "previousOwner",
          "type": "address"
        },
        {
          "indexed": true,
          "internalType": "address",
          "name": "newOwner",
          "type": "address"
        }
      ],
      "name": "OwnershipTransferred",
      "type": "event"
    },
    {
      "anonymous": false,
      "inputs": [
        {
          "indexed": true,
          "internalType": "address",
          "name": "from",
          "type": "address"
        },
        {
          "indexed": true,
          "internalType": "address",
          "name": "to",
          "type": "address"
        },
        {
          "indexed": true,
          "internalType": "uint256",
          "name": "tokenId",
          "type": "uint256"
        }
      ],
      "name": "Transfer",
      "type": "event"
    },
    {
      "inputs": [
        {
          "internalType": "address",
          "name": "to",
          "type": "address"
        },
        {
          "internalType": "uint256",
          "name": "tokenId",
          "type": "uint256"
        }
      ],
      "name": "approve",
      "outputs": [],
      "stateMutability": "nonpayable",
      "type": "function"
    },
    {
      "inputs": [
        {
          "internalType": "address",
          "name": "owner",
          "type": "address"
        }
      ],
      "name": "balanceOf",
      "outputs": [
        {
          "internalType": "uint256",
          "name": "",
          "type": "uint256"
        }
      ],
      "stateMutability": "view",
      "type": "function"
    },
    {
      "inputs": [
        {
          "internalType": "address",
          "name": "user",
          "type": "address"
        },
        {
          "internalType": "string",
          "name": "old_uri",
          "type": "string"
        },
        {
          "internalType": "string",
          "name": "new_uri",
          "type": "string"
        }
      ],
      "name": "editBlog",
      "outputs": [
        {
          "internalType": "uint256",
          "name": "",
          "type": "uint256"
        }
      ],
      "stateMutability": "payable",
      "type": "function"
    },
    {
      "inputs": [],
      "name": "getAllPublishedUri",
      "outputs": [
        {
          "internalType": "string[]",
          "name": "",
          "type": "string[]"
        }
      ],
      "stateMutability": "nonpayable",
      "type": "function"
    },
    {
      "inputs": [
        {
          "internalType": "uint256",
          "name": "tokenId",
          "type": "uint256"
        }
      ],
      "name": "getApproved",
      "outputs": [
        {
          "internalType": "address",
          "name": "",
          "type": "address"
        }
      ],
      "stateMutability": "view",
      "type": "function"
    },
    {
      "inputs": [],
      "name": "getFees",
      "outputs": [
        {
          "internalType": "uint256",
          "name": "",
          "type": "uint256"
        }
      ],
      "stateMutability": "view",
      "type": "function"
    },
    {
      "inputs": [
        {
          "internalType": "address",
          "name": "user",
          "type": "address"
        }
      ],
      "name": "getListTokenIdOfAddress",
      "outputs": [
        {
          "internalType": "uint256[]",
          "name": "",
          "type": "uint256[]"
        }
      ],
      "stateMutability": "nonpayable",
      "type": "function"
    },
    {
      "inputs": [
        {
          "internalType": "address",
          "name": "user",
          "type": "address"
        }
      ],
      "name": "getListUriOfAddress",
      "outputs": [
        {
          "internalType": "string[]",
          "name": "",
          "type": "string[]"
        }
      ],
      "stateMutability": "nonpayable",
      "type": "function"
    },
    {
      "inputs": [
        {
          "internalType": "string",
          "name": "uri",
          "type": "string"
        }
      ],
      "name": "getTokenIdOfUri",
      "outputs": [
        {
          "internalType": "uint256",
          "name": "",
          "type": "uint256"
        }
      ],
      "stateMutability": "view",
      "type": "function"
    },
    {
      "inputs": [
        {
          "internalType": "string",
          "name": "old_uri",
          "type": "string"
        },
        {
          "internalType": "string",
          "name": "new_uri",
          "type": "string"
        }
      ],
      "name": "giveMedalToABlog",
      "outputs": [
        {
          "internalType": "uint256",
          "name": "",
          "type": "uint256"
        }
      ],
      "stateMutability": "payable",
      "type": "function"
    },
    {
      "inputs": [
        {
          "internalType": "address",
          "name": "owner",
          "type": "address"
        },
        {
          "internalType": "address",
          "name": "operator",
          "type": "address"
        }
      ],
      "name": "isApprovedForAll",
      "outputs": [
        {
          "internalType": "bool",
          "name": "",
          "type": "bool"
        }
      ],
      "stateMutability": "view",
      "type": "function"
    },
    {
      "inputs": [],
      "name": "name",
      "outputs": [
        {
          "internalType": "string",
          "name": "",
          "type": "string"
        }
      ],
      "stateMutability": "view",
      "type": "function"
    },
    {
      "inputs": [],
      "name": "owner",
      "outputs": [
        {
          "internalType": "address",
          "name": "",
          "type": "address"
        }
      ],
      "stateMutability": "view",
      "type": "function"
    },
    {
      "inputs": [
        {
          "internalType": "uint256",
          "name": "tokenId",
          "type": "uint256"
        }
      ],
      "name": "ownerOf",
      "outputs": [
        {
          "internalType": "address",
          "name": "",
          "type": "address"
        }
      ],
      "stateMutability": "view",
      "type": "function"
    },
    {
      "inputs": [
        {
          "internalType": "address",
          "name": "user",
          "type": "address"
        },
        {
          "internalType": "string",
          "name": "uri",
          "type": "string"
        }
      ],
      "name": "publicBlog",
      "outputs": [
        {
          "internalType": "uint256",
          "name": "",
          "type": "uint256"
        }
      ],
      "stateMutability": "payable",
      "type": "function"
    },
    {
      "inputs": [],
      "name": "renounceOwnership",
      "outputs": [],
      "stateMutability": "nonpayable",
      "type": "function"
    },
    {
      "inputs": [
        {
          "internalType": "address",
          "name": "from",
          "type": "address"
        },
        {
          "internalType": "address",
          "name": "to",
          "type": "address"
        },
        {
          "internalType": "uint256",
          "name": "tokenId",
          "type": "uint256"
        }
      ],
      "name": "safeTransferFrom",
      "outputs": [],
      "stateMutability": "nonpayable",
      "type": "function"
    },
    {
      "inputs": [
        {
          "internalType": "address",
          "name": "from",
          "type": "address"
        },
        {
          "internalType": "address",
          "name": "to",
          "type": "address"
        },
        {
          "internalType": "uint256",
          "name": "tokenId",
          "type": "uint256"
        },
        {
          "internalType": "bytes",
          "name": "data",
          "type": "bytes"
        }
      ],
      "name": "safeTransferFrom",
      "outputs": [],
      "stateMutability": "nonpayable",
      "type": "function"
    },
    {
      "inputs": [
        {
          "internalType": "address",
          "name": "operator",
          "type": "address"
        },
        {
          "internalType": "bool",
          "name": "approved",
          "type": "bool"
        }
      ],
      "name": "setApprovalForAll",
      "outputs": [],
      "stateMutability": "nonpayable",
      "type": "function"
    },
    {
      "inputs": [
        {
          "internalType": "bytes4",
          "name": "interfaceId",
          "type": "bytes4"
        }
      ],
      "name": "supportsInterface",
      "outputs": [
        {
          "internalType": "bool",
          "name": "",
          "type": "bool"
        }
      ],
      "stateMutability": "view",
      "type": "function"
    },
    {
      "inputs": [],
      "name": "symbol",
      "outputs": [
        {
          "internalType": "string",
          "name": "",
          "type": "string"
        }
      ],
      "stateMutability": "view",
      "type": "function"
    },
    {
      "inputs": [
        {
          "internalType": "uint256",
          "name": "tokenId",
          "type": "uint256"
        }
      ],
      "name": "tokenURI",
      "outputs": [
        {
          "internalType": "string",
          "name": "",
          "type": "string"
        }
      ],
      "stateMutability": "view",
      "type": "function"
    },
    {
      "inputs": [
        {
          "internalType": "address",
          "name": "from",
          "type": "address"
        },
        {
          "internalType": "address",
          "name": "to",
          "type": "address"
        },
        {
          "internalType": "uint256",
          "name": "tokenId",
          "type": "uint256"
        }
      ],
      "name": "transferFrom",
      "outputs": [],
      "stateMutability": "nonpayable",
      "type": "function"
    },
    {
      "inputs": [
        {
          "internalType": "address",
          "name": "newOwner",
          "type": "address"
        }
      ],
      "name": "transferOwnership",
      "outputs": [],
      "stateMutability": "nonpayable",
      "type": "function"
    }
  ],
  "bytecode": "0x60806040523480156200001157600080fd5b50604051620045fa380380620045fa83398181016040528101906200003791906200032b565b828281600090816200004a919062000606565b5080600190816200005c919062000606565b5050506200007f620000736200008f60201b60201c565b6200009760201b60201c565b80600981905550505050620006ed565b600033905090565b6000600760009054906101000a900473ffffffffffffffffffffffffffffffffffffffff16905081600760006101000a81548173ffffffffffffffffffffffffffffffffffffffff021916908373ffffffffffffffffffffffffffffffffffffffff1602179055508173ffffffffffffffffffffffffffffffffffffffff168173ffffffffffffffffffffffffffffffffffffffff167f8be0079c531659141344cd1fd0a4f28419497f9722a3daafe3b4186f6b6457e060405160405180910390a35050565b6000604051905090565b600080fd5b600080fd5b600080fd5b600080fd5b6000601f19601f8301169050919050565b7f4e487b7100000000000000000000000000000000000000000000000000000000600052604160045260246000fd5b620001c6826200017b565b810181811067ffffffffffffffff82111715620001e857620001e76200018c565b5b80604052505050565b6000620001fd6200015d565b90506200020b8282620001bb565b919050565b600067ffffffffffffffff8211156200022e576200022d6200018c565b5b62000239826200017b565b9050602081019050919050565b60005b838110156200026657808201518184015260208101905062000249565b60008484015250505050565b600062000289620002838462000210565b620001f1565b905082815260208101848484011115620002a857620002a762000176565b5b620002b584828562000246565b509392505050565b600082601f830112620002d557620002d462000171565b5b8151620002e784826020860162000272565b91505092915050565b6000819050919050565b6200030581620002f0565b81146200031157600080fd5b50565b6000815190506200032581620002fa565b92915050565b60008060006060848603121562000347576200034662000167565b5b600084015167ffffffffffffffff8111156200036857620003676200016c565b5b6200037686828701620002bd565b935050602084015167ffffffffffffffff8111156200039a57620003996200016c565b5b620003a886828701620002bd565b9250506040620003bb8682870162000314565b9150509250925092565b600081519050919050565b7f4e487b7100000000000000000000000000000000000000000000000000000000600052602260045260246000fd5b600060028204905060018216806200041857607f821691505b6020821081036200042e576200042d620003d0565b5b50919050565b60008190508160005260206000209050919050565b60006020601f8301049050919050565b600082821b905092915050565b600060088302620004987fffffffffffffffffffffffffffffffffffffffffffffffffffffffffffffffff8262000459565b620004a4868362000459565b95508019841693508086168417925050509392505050565b6000819050919050565b6000620004e7620004e1620004db84620002f0565b620004bc565b620002f0565b9050919050565b6000819050919050565b6200050383620004c6565b6200051b6200051282620004ee565b84845462000466565b825550505050565b600090565b6200053262000523565b6200053f818484620004f8565b505050565b5b8181101562000567576200055b60008262000528565b60018101905062000545565b5050565b601f821115620005b657620005808162000434565b6200058b8462000449565b810160208510156200059b578190505b620005b3620005aa8562000449565b83018262000544565b50505b505050565b600082821c905092915050565b6000620005db60001984600802620005bb565b1980831691505092915050565b6000620005f68383620005c8565b9150826002028217905092915050565b6200061182620003c5565b67ffffffffffffffff8111156200062d576200062c6200018c565b5b620006398254620003ff565b620006468282856200056b565b600060209050601f8311600181146200067e576000841562000669578287015190505b620006758582620005e8565b865550620006e5565b601f1984166200068e8662000434565b60005b82811015620006b85784890151825560018201915060208501945060208101905062000691565b86831015620006d85784890151620006d4601f891682620005c8565b8355505b6001600288020188555050505b505050505050565b613efd80620006fd6000396000f3fe60806040526004361061014b5760003560e01c8063715018a6116100b6578063a22cb4651161006f578063a22cb465146104c9578063b88d4fde146104f2578063c87b56dd1461051b578063db8d55f114610558578063e985e9c514610583578063f2fde38b146105c05761014b565b8063715018a6146103d15780638229e36f146103e85780638da5cb5b146104185780638e0eecbe1461044357806395d89b411461046e5780639c4b35f1146104995761014b565b80631b7966fa116101085780631b7966fa1461028b57806323b872dd146102c857806342842e0e146102f15780634515833f1461031a5780636352211e1461035757806370a08231146103945761014b565b806301ffc9a714610150578063028b50b21461018d57806306fdde03146101bd578063081812fc146101e85780630910cfaf14610225578063095ea7b314610262575b600080fd5b34801561015c57600080fd5b506101776004803603810190610172919061272b565b6105e9565b6040516101849190612773565b60405180910390f35b6101a760048036038101906101a29190612932565b6106cb565b6040516101b491906129a7565b60405180910390f35b3480156101c957600080fd5b506101d2610799565b6040516101df9190612a41565b60405180910390f35b3480156101f457600080fd5b5061020f600480360381019061020a9190612a8f565b61082b565b60405161021c9190612acb565b60405180910390f35b34801561023157600080fd5b5061024c60048036038101906102479190612ae6565b610871565b60405161025991906129a7565b60405180910390f35b34801561026e57600080fd5b5061028960048036038101906102849190612b2f565b610911565b005b34801561029757600080fd5b506102b260048036038101906102ad9190612b6f565b610a28565b6040516102bf9190612ca8565b60405180910390f35b3480156102d457600080fd5b506102ef60048036038101906102ea9190612cca565b610b0b565b005b3480156102fd57600080fd5b5061031860048036038101906103139190612cca565b610b6b565b005b34801561032657600080fd5b50610341600480360381019061033c9190612b6f565b610b8b565b60405161034e9190612ddb565b60405180910390f35b34801561036357600080fd5b5061037e60048036038101906103799190612a8f565b610cd3565b60405161038b9190612acb565b60405180910390f35b3480156103a057600080fd5b506103bb60048036038101906103b69190612b6f565b610d59565b6040516103c891906129a7565b60405180910390f35b3480156103dd57600080fd5b506103e6610e10565b005b61040260048036038101906103fd9190612dfd565b610e24565b60405161040f91906129a7565b60405180910390f35b34801561042457600080fd5b5061042d610ecd565b60405161043a9190612acb565b60405180910390f35b34801561044f57600080fd5b50610458610ef7565b6040516104659190612ca8565b60405180910390f35b34801561047a57600080fd5b50610483610fd2565b6040516104909190612a41565b60405180910390f35b6104b360048036038101906104ae9190612e88565b611064565b6040516104c091906129a7565b60405180910390f35b3480156104d557600080fd5b506104f060048036038101906104eb9190612f2c565b6110a4565b005b3480156104fe57600080fd5b506105196004803603810190610514919061300d565b6110ba565b005b34801561052757600080fd5b50610542600480360381019061053d9190612a8f565b61111c565b60405161054f9190612a41565b60405180910390f35b34801561056457600080fd5b5061056d61112e565b60405161057a91906129a7565b60405180910390f35b34801561058f57600080fd5b506105aa60048036038101906105a59190613090565b611138565b6040516105b79190612773565b60405180910390f35b3480156105cc57600080fd5b506105e760048036038101906105e29190612b6f565b6111cc565b005b60007f80ac58cd000000000000000000000000000000000000000000000000000000007bffffffffffffffffffffffffffffffffffffffffffffffffffffffff1916827bffffffffffffffffffffffffffffffffffffffffffffffffffffffff191614806106b457507f5b5e139f000000000000000000000000000000000000000000000000000000007bffffffffffffffffffffffffffffffffffffffffffffffffffffffff1916827bffffffffffffffffffffffffffffffffffffffffffffffffffffffff1916145b806106c457506106c38261124f565b5b9050919050565b60008015156106d9836112b9565b15151461071b576040517f08c379a00000000000000000000000000000000000000000000000000000000081526004016107129061311c565b60405180910390fd5b600061072784846112f1565b9050600c60008573ffffffffffffffffffffffffffffffffffffffff1673ffffffffffffffffffffffffffffffffffffffff1681526020019081526020016000208190806001815401808255809150506001900390600052602060002001600090919091909150558091505092915050565b6060600080546107a89061316b565b80601f01602080910402602001604051908101604052809291908181526020018280546107d49061316b565b80156108215780601f106107f657610100808354040283529160200191610821565b820191906000526020600020905b81548152906001019060200180831161080457829003601f168201915b5050505050905090565b6000610836826113bd565b6004600083815260200190815260200160002060009054906101000a900473ffffffffffffffffffffffffffffffffffffffff169050919050565b600060011515600b8360405161088791906131d8565b908152602001604051809103902060010160009054906101000a900460ff161515146108e8576040517f08c379a00000000000000000000000000000000000000000000000000000000081526004016108df9061323b565b60405180910390fd5b600b826040516108f891906131d8565b9081526020016040518091039020600001549050919050565b600061091c82610cd3565b90508073ffffffffffffffffffffffffffffffffffffffff168373ffffffffffffffffffffffffffffffffffffffff160361098c576040517f08c379a0000000000000000000000000000000000000000000000000000000008152600401610983906132cd565b60405180910390fd5b8073ffffffffffffffffffffffffffffffffffffffff166109ab611408565b73ffffffffffffffffffffffffffffffffffffffff1614806109da57506109d9816109d4611408565b611138565b5b610a19576040517f08c379a0000000000000000000000000000000000000000000000000000000008152600401610a109061335f565b60405180910390fd5b610a238383611410565b505050565b60606000610a3583610b8b565b905060008151905060008167ffffffffffffffff811115610a5957610a58612807565b5b604051908082528060200260200182016040528015610a8c57816020015b6060815260200190600190039081610a775790505b50905060005b82811015610aff576000848281518110610aaf57610aae61337f565b5b60200260200101519050610ac2816114c9565b9050610acd8161111c565b838381518110610ae057610adf61337f565b5b6020026020010181905250508080610af7906133dd565b915050610a92565b50809350505050919050565b610b1c610b16611408565b82611548565b610b5b576040517f08c379a0000000000000000000000000000000000000000000000000000000008152600401610b5290613497565b60405180910390fd5b610b668383836115dd565b505050565b610b86838383604051806020016040528060008152506110ba565b505050565b60606000600c60008473ffffffffffffffffffffffffffffffffffffffff1673ffffffffffffffffffffffffffffffffffffffff16815260200190815260200160002080549050905060008167ffffffffffffffff811115610bf057610bef612807565b5b604051908082528060200260200182016040528015610c1e5781602001602082028036833780820191505090505b50905060005b82811015610cc8576000600c60008773ffffffffffffffffffffffffffffffffffffffff1673ffffffffffffffffffffffffffffffffffffffff1681526020019081526020016000208281548110610c7f57610c7e61337f565b5b90600052602060002001549050610c95816114c9565b838381518110610ca857610ca761337f565b5b602002602001018181525050508080610cc0906133dd565b915050610c24565b508092505050919050565b600080610cdf836118d6565b9050600073ffffffffffffffffffffffffffffffffffffffff168173ffffffffffffffffffffffffffffffffffffffff1603610d50576040517f08c379a0000000000000000000000000000000000000000000000000000000008152600401610d4790613503565b60405180910390fd5b80915050919050565b60008073ffffffffffffffffffffffffffffffffffffffff168273ffffffffffffffffffffffffffffffffffffffff1603610dc9576040517f08c379a0000000000000000000000000000000000000000000000000000000008152600401610dc090613595565b60405180910390fd5b600360008373ffffffffffffffffffffffffffffffffffffffff1673ffffffffffffffffffffffffffffffffffffffff168152602001908152602001600020549050919050565b610e18611913565b610e226000611991565b565b600080610e3084610871565b90508473ffffffffffffffffffffffffffffffffffffffff16610e5282610cd3565b73ffffffffffffffffffffffffffffffffffffffff1614610ea8576040517f08c379a0000000000000000000000000000000000000000000000000000000008152600401610e9f90613601565b60405180910390fd5b6000610eb486856112f1565b9050610ec08282611a57565b5080925050509392505050565b6000600760009054906101000a900473ffffffffffffffffffffffffffffffffffffffff16905090565b60606000600d80549050905060008167ffffffffffffffff811115610f1f57610f1e612807565b5b604051908082528060200260200182016040528015610f5257816020015b6060815260200190600190039081610f3d5790505b50905060005b82811015610fc9576000600d8281548110610f7657610f7561337f565b5b90600052602060002001549050610f8c816114c9565b9050610f978161111c565b838381518110610faa57610fa961337f565b5b6020026020010181905250508080610fc1906133dd565b915050610f58565b50809250505090565b606060018054610fe19061316b565b80601f016020809104026020016040519081016040528092919081815260200182805461100d9061316b565b801561105a5780601f1061102f5761010080835404028352916020019161105a565b820191906000526020600020905b81548152906001019060200180831161103d57829003601f168201915b5050505050905090565b60008061107084610871565b9050600061107d82610cd3565b9050600061108b82866112f1565b90506110978382611a57565b5080935050505092915050565b6110b66110af611408565b8383611aac565b5050565b6110cb6110c5611408565b83611548565b61110a576040517f08c379a000000000000000000000000000000000000000000000000000000000815260040161110190613497565b60405180910390fd5b61111684848484611c18565b50505050565b606061112782611c74565b9050919050565b6000600954905090565b6000600560008473ffffffffffffffffffffffffffffffffffffffff1673ffffffffffffffffffffffffffffffffffffffff16815260200190815260200160002060008373ffffffffffffffffffffffffffffffffffffffff1673ffffffffffffffffffffffffffffffffffffffff16815260200190815260200160002060009054906101000a900460ff16905092915050565b6111d4611913565b600073ffffffffffffffffffffffffffffffffffffffff168173ffffffffffffffffffffffffffffffffffffffff1603611243576040517f08c379a000000000000000000000000000000000000000000000000000000000815260040161123a90613693565b60405180910390fd5b61124c81611991565b50565b60007f01ffc9a7000000000000000000000000000000000000000000000000000000007bffffffffffffffffffffffffffffffffffffffffffffffffffffffff1916827bffffffffffffffffffffffffffffffffffffffffffffffffffffffff1916149050919050565b6000600b826040516112cb91906131d8565b908152602001604051809103902060010160009054906101000a900460ff169050919050565b6000806112fe6008611d86565b905061130a6008611d94565b6113148482611daa565b61131e8184611dc8565b604051806040016040528082815260200160011515815250600b8460405161134691906131d8565b90815260200160405180910390206000820151816000015560208201518160010160006101000a81548160ff021916908315150217905550905050600d8190806001815401808255809150506001900390600052602060002001600090919091909150556113b381611e35565b8091505092915050565b6113c681611e90565b611405576040517f08c379a00000000000000000000000000000000000000000000000000000000081526004016113fc90613503565b60405180910390fd5b50565b600033905090565b816004600083815260200190815260200160002060006101000a81548173ffffffffffffffffffffffffffffffffffffffff021916908373ffffffffffffffffffffffffffffffffffffffff160217905550808273ffffffffffffffffffffffffffffffffffffffff1661148383610cd3565b73ffffffffffffffffffffffffffffffffffffffff167f8c5be1e5ebec7d5bd14f71427d1e84f3dd0314c0f7b2291e5b200ac8c7c3b92560405160405180910390a45050565b600081600a600084815260200190815260200160002060000154036114f057819050611543565b61150f600a6000848152602001908152602001600020600001546114c9565b600a600084815260200190815260200160002060000181905550600a60008381526020019081526020016000206000015490505b919050565b60008061155483610cd3565b90508073ffffffffffffffffffffffffffffffffffffffff168473ffffffffffffffffffffffffffffffffffffffff16148061159657506115958185611138565b5b806115d457508373ffffffffffffffffffffffffffffffffffffffff166115bc8461082b565b73ffffffffffffffffffffffffffffffffffffffff16145b91505092915050565b8273ffffffffffffffffffffffffffffffffffffffff166115fd82610cd3565b73ffffffffffffffffffffffffffffffffffffffff1614611653576040517f08c379a000000000000000000000000000000000000000000000000000000000815260040161164a90613725565b60405180910390fd5b600073ffffffffffffffffffffffffffffffffffffffff168273ffffffffffffffffffffffffffffffffffffffff16036116c2576040517f08c379a00000000000000000000000000000000000000000000000000000000081526004016116b9906137b7565b60405180910390fd5b6116cf8383836001611ed1565b8273ffffffffffffffffffffffffffffffffffffffff166116ef82610cd3565b73ffffffffffffffffffffffffffffffffffffffff1614611745576040517f08c379a000000000000000000000000000000000000000000000000000000000815260040161173c90613725565b60405180910390fd5b6004600082815260200190815260200160002060006101000a81549073ffffffffffffffffffffffffffffffffffffffff02191690556001600360008573ffffffffffffffffffffffffffffffffffffffff1673ffffffffffffffffffffffffffffffffffffffff168152602001908152602001600020600082825403925050819055506001600360008473ffffffffffffffffffffffffffffffffffffffff1673ffffffffffffffffffffffffffffffffffffffff16815260200190815260200160002060008282540192505081905550816002600083815260200190815260200160002060006101000a81548173ffffffffffffffffffffffffffffffffffffffff021916908373ffffffffffffffffffffffffffffffffffffffff160217905550808273ffffffffffffffffffffffffffffffffffffffff168473ffffffffffffffffffffffffffffffffffffffff167fddf252ad1be2c89b69c2b068fc378daa952ba7f163c4a11628f55a4df523b3ef60405160405180910390a46118d18383836001611ff7565b505050565b60006002600083815260200190815260200160002060009054906101000a900473ffffffffffffffffffffffffffffffffffffffff169050919050565b61191b611408565b73ffffffffffffffffffffffffffffffffffffffff16611939610ecd565b73ffffffffffffffffffffffffffffffffffffffff161461198f576040517f08c379a000000000000000000000000000000000000000000000000000000000815260040161198690613823565b60405180910390fd5b565b6000600760009054906101000a900473ffffffffffffffffffffffffffffffffffffffff16905081600760006101000a81548173ffffffffffffffffffffffffffffffffffffffff021916908373ffffffffffffffffffffffffffffffffffffffff1602179055508173ffffffffffffffffffffffffffffffffffffffff168173ffffffffffffffffffffffffffffffffffffffff167f8be0079c531659141344cd1fd0a4f28419497f9722a3daafe3b4186f6b6457e060405160405180910390a35050565b600080611a63846114c9565b90506000611a70846114c9565b9050808203611a8457600092505050611aa6565b80600a6000848152602001908152602001600020600001819055506001925050505b92915050565b8173ffffffffffffffffffffffffffffffffffffffff168373ffffffffffffffffffffffffffffffffffffffff1603611b1a576040517f08c379a0000000000000000000000000000000000000000000000000000000008152600401611b119061388f565b60405180910390fd5b80600560008573ffffffffffffffffffffffffffffffffffffffff1673ffffffffffffffffffffffffffffffffffffffff16815260200190815260200160002060008473ffffffffffffffffffffffffffffffffffffffff1673ffffffffffffffffffffffffffffffffffffffff16815260200190815260200160002060006101000a81548160ff0219169083151502179055508173ffffffffffffffffffffffffffffffffffffffff168373ffffffffffffffffffffffffffffffffffffffff167f17307eab39ab6107e8899845ad3d59bd9653f200f220920489ca2b5937696c3183604051611c0b9190612773565b60405180910390a3505050565b611c238484846115dd565b611c2f84848484611ffd565b611c6e576040517f08c379a0000000000000000000000000000000000000000000000000000000008152600401611c6590613921565b60405180910390fd5b50505050565b6060611c7f826113bd565b6000600660008481526020019081526020016000208054611c9f9061316b565b80601f0160208091040260200160405190810160405280929190818152602001828054611ccb9061316b565b8015611d185780601f10611ced57610100808354040283529160200191611d18565b820191906000526020600020905b815481529060010190602001808311611cfb57829003601f168201915b505050505090506000611d29612184565b90506000815103611d3e578192505050611d81565b600082511115611d73578082604051602001611d5b929190613941565b60405160208183030381529060405292505050611d81565b611d7c8461219b565b925050505b919050565b600081600001549050919050565b6001816000016000828254019250508190555050565b611dc4828260405180602001604052806000815250612203565b5050565b611dd182611e90565b611e10576040517f08c379a0000000000000000000000000000000000000000000000000000000008152600401611e07906139d7565b60405180910390fd5b80600660008481526020019081526020016000209081611e309190613ba3565b505050565b604051806040016040528082815260200160011515815250600a60008381526020019081526020016000206000820151816000015560208201518160010160006101000a81548160ff02191690831515021790555090505050565b60008073ffffffffffffffffffffffffffffffffffffffff16611eb2836118d6565b73ffffffffffffffffffffffffffffffffffffffff1614159050919050565b6001811115611ff157600073ffffffffffffffffffffffffffffffffffffffff168473ffffffffffffffffffffffffffffffffffffffff1614611f655780600360008673ffffffffffffffffffffffffffffffffffffffff1673ffffffffffffffffffffffffffffffffffffffff1681526020019081526020016000206000828254611f5d9190613c75565b925050819055505b600073ffffffffffffffffffffffffffffffffffffffff168373ffffffffffffffffffffffffffffffffffffffff1614611ff05780600360008573ffffffffffffffffffffffffffffffffffffffff1673ffffffffffffffffffffffffffffffffffffffff1681526020019081526020016000206000828254611fe89190613ca9565b925050819055505b5b50505050565b50505050565b600061201e8473ffffffffffffffffffffffffffffffffffffffff1661225e565b15612177578373ffffffffffffffffffffffffffffffffffffffff1663150b7a02612047611408565b8786866040518563ffffffff1660e01b81526004016120699493929190613d32565b6020604051808303816000875af19250505080156120a557506040513d601f19601f820116820180604052508101906120a29190613d93565b60015b612127573d80600081146120d5576040519150601f19603f3d011682016040523d82523d6000602084013e6120da565b606091505b50600081510361211f576040517f08c379a000000000000000000000000000000000000000000000000000000000815260040161211690613921565b60405180910390fd5b805181602001fd5b63150b7a0260e01b7bffffffffffffffffffffffffffffffffffffffffffffffffffffffff1916817bffffffffffffffffffffffffffffffffffffffffffffffffffffffff19161491505061217c565b600190505b949350505050565b606060405180602001604052806000815250905090565b60606121a6826113bd565b60006121b0612184565b905060008151116121d057604051806020016040528060008152506121fb565b806121da84612281565b6040516020016121eb929190613941565b6040516020818303038152906040525b915050919050565b61220d838361234f565b61221a6000848484611ffd565b612259576040517f08c379a000000000000000000000000000000000000000000000000000000000815260040161225090613921565b60405180910390fd5b505050565b6000808273ffffffffffffffffffffffffffffffffffffffff163b119050919050565b6060600060016122908461256c565b01905060008167ffffffffffffffff8111156122af576122ae612807565b5b6040519080825280601f01601f1916602001820160405280156122e15781602001600182028036833780820191505090505b509050600082602001820190505b600115612344578080600190039150507f3031323334353637383961626364656600000000000000000000000000000000600a86061a8153600a858161233857612337613dc0565b5b049450600085036122ef575b819350505050919050565b600073ffffffffffffffffffffffffffffffffffffffff168273ffffffffffffffffffffffffffffffffffffffff16036123be576040517f08c379a00000000000000000000000000000000000000000000000000000000081526004016123b590613e3b565b60405180910390fd5b6123c781611e90565b15612407576040517f08c379a00000000000000000000000000000000000000000000000000000000081526004016123fe90613ea7565b60405180910390fd5b612415600083836001611ed1565b61241e81611e90565b1561245e576040517f08c379a000000000000000000000000000000000000000000000000000000000815260040161245590613ea7565b60405180910390fd5b6001600360008473ffffffffffffffffffffffffffffffffffffffff1673ffffffffffffffffffffffffffffffffffffffff16815260200190815260200160002060008282540192505081905550816002600083815260200190815260200160002060006101000a81548173ffffffffffffffffffffffffffffffffffffffff021916908373ffffffffffffffffffffffffffffffffffffffff160217905550808273ffffffffffffffffffffffffffffffffffffffff16600073ffffffffffffffffffffffffffffffffffffffff167fddf252ad1be2c89b69c2b068fc378daa952ba7f163c4a11628f55a4df523b3ef60405160405180910390a4612568600083836001611ff7565b5050565b600080600090507a184f03e93ff9f4daa797ed6e38ed64bf6a1f01000000000000000083106125ca577a184f03e93ff9f4daa797ed6e38ed64bf6a1f01000000000000000083816125c0576125bf613dc0565b5b0492506040810190505b6d04ee2d6d415b85acef81000000008310612607576d04ee2d6d415b85acef810000000083816125fd576125fc613dc0565b5b0492506020810190505b662386f26fc10000831061263657662386f26fc10000838161262c5761262b613dc0565b5b0492506010810190505b6305f5e100831061265f576305f5e100838161265557612654613dc0565b5b0492506008810190505b612710831061268457612710838161267a57612679613dc0565b5b0492506004810190505b606483106126a7576064838161269d5761269c613dc0565b5b0492506002810190505b600a83106126b6576001810190505b80915050919050565b6000604051905090565b600080fd5b600080fd5b60007fffffffff0000000000000000000000000000000000000000000000000000000082169050919050565b612708816126d3565b811461271357600080fd5b50565b600081359050612725816126ff565b92915050565b600060208284031215612741576127406126c9565b5b600061274f84828501612716565b91505092915050565b60008115159050919050565b61276d81612758565b82525050565b60006020820190506127886000830184612764565b92915050565b600073ffffffffffffffffffffffffffffffffffffffff82169050919050565b60006127b98261278e565b9050919050565b6127c9816127ae565b81146127d457600080fd5b50565b6000813590506127e6816127c0565b92915050565b600080fd5b600080fd5b6000601f19601f8301169050919050565b7f4e487b7100000000000000000000000000000000000000000000000000000000600052604160045260246000fd5b61283f826127f6565b810181811067ffffffffffffffff8211171561285e5761285d612807565b5b80604052505050565b60006128716126bf565b905061287d8282612836565b919050565b600067ffffffffffffffff82111561289d5761289c612807565b5b6128a6826127f6565b9050602081019050919050565b82818337600083830152505050565b60006128d56128d084612882565b612867565b9050828152602081018484840111156128f1576128f06127f1565b5b6128fc8482856128b3565b509392505050565b600082601f830112612919576129186127ec565b5b81356129298482602086016128c2565b91505092915050565b60008060408385031215612949576129486126c9565b5b6000612957858286016127d7565b925050602083013567ffffffffffffffff811115612978576129776126ce565b5b61298485828601612904565b9150509250929050565b6000819050919050565b6129a18161298e565b82525050565b60006020820190506129bc6000830184612998565b92915050565b600081519050919050565b600082825260208201905092915050565b60005b838110156129fc5780820151818401526020810190506129e1565b60008484015250505050565b6000612a13826129c2565b612a1d81856129cd565b9350612a2d8185602086016129de565b612a36816127f6565b840191505092915050565b60006020820190508181036000830152612a5b8184612a08565b905092915050565b612a6c8161298e565b8114612a7757600080fd5b50565b600081359050612a8981612a63565b92915050565b600060208284031215612aa557612aa46126c9565b5b6000612ab384828501612a7a565b91505092915050565b612ac5816127ae565b82525050565b6000602082019050612ae06000830184612abc565b92915050565b600060208284031215612afc57612afb6126c9565b5b600082013567ffffffffffffffff811115612b1a57612b196126ce565b5b612b2684828501612904565b91505092915050565b60008060408385031215612b4657612b456126c9565b5b6000612b54858286016127d7565b9250506020612b6585828601612a7a565b9150509250929050565b600060208284031215612b8557612b846126c9565b5b6000612b93848285016127d7565b91505092915050565b600081519050919050565b600082825260208201905092915050565b6000819050602082019050919050565b600082825260208201905092915050565b6000612be4826129c2565b612bee8185612bc8565b9350612bfe8185602086016129de565b612c07816127f6565b840191505092915050565b6000612c1e8383612bd9565b905092915050565b6000602082019050919050565b6000612c3e82612b9c565b612c488185612ba7565b935083602082028501612c5a85612bb8565b8060005b85811015612c965784840389528151612c778582612c12565b9450612c8283612c26565b925060208a01995050600181019050612c5e565b50829750879550505050505092915050565b60006020820190508181036000830152612cc28184612c33565b905092915050565b600080600060608486031215612ce357612ce26126c9565b5b6000612cf1868287016127d7565b9350506020612d02868287016127d7565b9250506040612d1386828701612a7a565b9150509250925092565b600081519050919050565b600082825260208201905092915050565b6000819050602082019050919050565b612d528161298e565b82525050565b6000612d648383612d49565b60208301905092915050565b6000602082019050919050565b6000612d8882612d1d565b612d928185612d28565b9350612d9d83612d39565b8060005b83811015612dce578151612db58882612d58565b9750612dc083612d70565b925050600181019050612da1565b5085935050505092915050565b60006020820190508181036000830152612df58184612d7d565b905092915050565b600080600060608486031215612e1657612e156126c9565b5b6000612e24868287016127d7565b935050602084013567ffffffffffffffff811115612e4557612e446126ce565b5b612e5186828701612904565b925050604084013567ffffffffffffffff811115612e7257612e716126ce565b5b612e7e86828701612904565b9150509250925092565b60008060408385031215612e9f57612e9e6126c9565b5b600083013567ffffffffffffffff811115612ebd57612ebc6126ce565b5b612ec985828601612904565b925050602083013567ffffffffffffffff811115612eea57612ee96126ce565b5b612ef685828601612904565b9150509250929050565b612f0981612758565b8114612f1457600080fd5b50565b600081359050612f2681612f00565b92915050565b60008060408385031215612f4357612f426126c9565b5b6000612f51858286016127d7565b9250506020612f6285828601612f17565b9150509250929050565b600067ffffffffffffffff821115612f8757612f86612807565b5b612f90826127f6565b9050602081019050919050565b6000612fb0612fab84612f6c565b612867565b905082815260208101848484011115612fcc57612fcb6127f1565b5b612fd78482856128b3565b509392505050565b600082601f830112612ff457612ff36127ec565b5b8135613004848260208601612f9d565b91505092915050565b60008060008060808587031215613027576130266126c9565b5b6000613035878288016127d7565b9450506020613046878288016127d7565b935050604061305787828801612a7a565b925050606085013567ffffffffffffffff811115613078576130776126ce565b5b61308487828801612fdf565b91505092959194509250565b600080604083850312156130a7576130a66126c9565b5b60006130b5858286016127d7565b92505060206130c6858286016127d7565b9150509250929050565b7f5552492069732065786973746564210000000000000000000000000000000000600082015250565b6000613106600f836129cd565b9150613111826130d0565b602082019050919050565b60006020820190508181036000830152613135816130f9565b9050919050565b7f4e487b7100000000000000000000000000000000000000000000000000000000600052602260045260246000fd5b6000600282049050600182168061318357607f821691505b6020821081036131965761319561313c565b5b50919050565b600081905092915050565b60006131b2826129c2565b6131bc818561319c565b93506131cc8185602086016129de565b80840191505092915050565b60006131e482846131a7565b915081905092915050565b7f557269206973206e6f7420616464656421000000000000000000000000000000600082015250565b60006132256011836129cd565b9150613230826131ef565b602082019050919050565b6000602082019050818103600083015261325481613218565b9050919050565b7f4552433732313a20617070726f76616c20746f2063757272656e74206f776e6560008201527f7200000000000000000000000000000000000000000000000000000000000000602082015250565b60006132b76021836129cd565b91506132c28261325b565b604082019050919050565b600060208201905081810360008301526132e6816132aa565b9050919050565b7f4552433732313a20617070726f76652063616c6c6572206973206e6f7420746f60008201527f6b656e206f776e6572206f7220617070726f76656420666f7220616c6c000000602082015250565b6000613349603d836129cd565b9150613354826132ed565b604082019050919050565b600060208201905081810360008301526133788161333c565b9050919050565b7f4e487b7100000000000000000000000000000000000000000000000000000000600052603260045260246000fd5b7f4e487b7100000000000000000000000000000000000000000000000000000000600052601160045260246000fd5b60006133e88261298e565b91507fffffffffffffffffffffffffffffffffffffffffffffffffffffffffffffffff820361341a576134196133ae565b5b600182019050919050565b7f4552433732313a2063616c6c6572206973206e6f7420746f6b656e206f776e6560008201527f72206f7220617070726f76656400000000000000000000000000000000000000602082015250565b6000613481602d836129cd565b915061348c82613425565b604082019050919050565b600060208201905081810360008301526134b081613474565b9050919050565b7f4552433732313a20696e76616c696420746f6b656e2049440000000000000000600082015250565b60006134ed6018836129cd565b91506134f8826134b7565b602082019050919050565b6000602082019050818103600083015261351c816134e0565b9050919050565b7f4552433732313a2061646472657373207a65726f206973206e6f74206120766160008201527f6c6964206f776e65720000000000000000000000000000000000000000000000602082015250565b600061357f6029836129cd565b915061358a82613523565b604082019050919050565b600060208201905081810360008301526135ae81613572565b9050919050565b7f596f7520617265206e6f7420746865206f776e65722100000000000000000000600082015250565b60006135eb6016836129cd565b91506135f6826135b5565b602082019050919050565b6000602082019050818103600083015261361a816135de565b9050919050565b7f4f776e61626c653a206e6577206f776e657220697320746865207a65726f206160008201527f6464726573730000000000000000000000000000000000000000000000000000602082015250565b600061367d6026836129cd565b915061368882613621565b604082019050919050565b600060208201905081810360008301526136ac81613670565b9050919050565b7f4552433732313a207472616e736665722066726f6d20696e636f72726563742060008201527f6f776e6572000000000000000000000000000000000000000000000000000000602082015250565b600061370f6025836129cd565b915061371a826136b3565b604082019050919050565b6000602082019050818103600083015261373e81613702565b9050919050565b7f4552433732313a207472616e7366657220746f20746865207a65726f2061646460008201527f7265737300000000000000000000000000000000000000000000000000000000602082015250565b60006137a16024836129cd565b91506137ac82613745565b604082019050919050565b600060208201905081810360008301526137d081613794565b9050919050565b7f4f776e61626c653a2063616c6c6572206973206e6f7420746865206f776e6572600082015250565b600061380d6020836129cd565b9150613818826137d7565b602082019050919050565b6000602082019050818103600083015261383c81613800565b9050919050565b7f4552433732313a20617070726f766520746f2063616c6c657200000000000000600082015250565b60006138796019836129cd565b915061388482613843565b602082019050919050565b600060208201905081810360008301526138a88161386c565b9050919050565b7f4552433732313a207472616e7366657220746f206e6f6e20455243373231526560008201527f63656976657220696d706c656d656e7465720000000000000000000000000000602082015250565b600061390b6032836129cd565b9150613916826138af565b604082019050919050565b6000602082019050818103600083015261393a816138fe565b9050919050565b600061394d82856131a7565b915061395982846131a7565b91508190509392505050565b7f45524337323155524953746f726167653a2055524920736574206f66206e6f6e60008201527f6578697374656e7420746f6b656e000000000000000000000000000000000000602082015250565b60006139c1602e836129cd565b91506139cc82613965565b604082019050919050565b600060208201905081810360008301526139f0816139b4565b9050919050565b60008190508160005260206000209050919050565b60006020601f8301049050919050565b600082821b905092915050565b600060088302613a597fffffffffffffffffffffffffffffffffffffffffffffffffffffffffffffffff82613a1c565b613a638683613a1c565b95508019841693508086168417925050509392505050565b6000819050919050565b6000613aa0613a9b613a968461298e565b613a7b565b61298e565b9050919050565b6000819050919050565b613aba83613a85565b613ace613ac682613aa7565b848454613a29565b825550505050565b600090565b613ae3613ad6565b613aee818484613ab1565b505050565b5b81811015613b1257613b07600082613adb565b600181019050613af4565b5050565b601f821115613b5757613b28816139f7565b613b3184613a0c565b81016020851015613b40578190505b613b54613b4c85613a0c565b830182613af3565b50505b505050565b600082821c905092915050565b6000613b7a60001984600802613b5c565b1980831691505092915050565b6000613b938383613b69565b9150826002028217905092915050565b613bac826129c2565b67ffffffffffffffff811115613bc557613bc4612807565b5b613bcf825461316b565b613bda828285613b16565b600060209050601f831160018114613c0d5760008415613bfb578287015190505b613c058582613b87565b865550613c6d565b601f198416613c1b866139f7565b60005b82811015613c4357848901518255600182019150602085019450602081019050613c1e565b86831015613c605784890151613c5c601f891682613b69565b8355505b6001600288020188555050505b505050505050565b6000613c808261298e565b9150613c8b8361298e565b9250828203905081811115613ca357613ca26133ae565b5b92915050565b6000613cb48261298e565b9150613cbf8361298e565b9250828201905080821115613cd757613cd66133ae565b5b92915050565b600081519050919050565b600082825260208201905092915050565b6000613d0482613cdd565b613d0e8185613ce8565b9350613d1e8185602086016129de565b613d27816127f6565b840191505092915050565b6000608082019050613d476000830187612abc565b613d546020830186612abc565b613d616040830185612998565b8181036060830152613d738184613cf9565b905095945050505050565b600081519050613d8d816126ff565b92915050565b600060208284031215613da957613da86126c9565b5b6000613db784828501613d7e565b91505092915050565b7f4e487b7100000000000000000000000000000000000000000000000000000000600052601260045260246000fd5b7f4552433732313a206d696e7420746f20746865207a65726f2061646472657373600082015250565b6000613e256020836129cd565b9150613e3082613def565b602082019050919050565b60006020820190508181036000830152613e5481613e18565b9050919050565b7f4552433732313a20746f6b656e20616c7265616479206d696e74656400000000600082015250565b6000613e91601c836129cd565b9150613e9c82613e5b565b602082019050919050565b60006020820190508181036000830152613ec081613e84565b905091905056fea264697066735822122063bf2dc46942de218b94b7db83b39cbe42be0211cc1fb3f03101d5e3f43cb7a364736f6c63430008110033",
  "linkReferences": {},
  "deployedLinkReferences": {}
}